:100000000C9434000C9451000C9451000C94510049
:100010000C9451000C9451000C9451000C9451001C
:100020000C9451000C9451000C9451000C9451000C
:100030000C9451000C9451000C9451000C945100FC
:100040000C9451000C9451000C9451000C945100EC
:100050000C9451000C9451000C9451000C945100DC
:100060000C9451000C94510011241FBECFEFD8E026
:10007000DEBFCDBF11E0A0E0B1E0EAE2F4E002C0F3
:1000800005900D92A632B107D9F721E0A6E2B1E0C2
:1000900001C01D92A632B207E1F70E9453000C94F2
:1000A00013020C940000CF93DF93CDB7DEB7A59772
:1000B0000FB6F894DEBF0FBECDBF60E875E280E0FA
:1000C00090E00E9496010E94870185E0E0E0F1E067
:1000D000DE01119601900D928A95E1F70E94DD00F4
:1000E0006AE0CE0101960E94140185E091E00E9431
:1000F000C40181E00E944201882371F0CE0106967E
:100100000E945E0184E191E00E94C401CE01069646
:100110000E94D7010E94EA012FEF83ED90E3215066
:1001200080409040E1F700C00000E3CFCF93C62F9E
:1001300095B19B7F95B98F7180620E9490018C2F41
:100140000E94900185B1846085B9CF9108950F9385
:100150001F93CF93DF938B01D42F95B19B7F95B9DC
:100160008F7180620E949001C0E0CD1740F4F801C9
:10017000EC0FF11D80810E949001CF5FF6CF85B119
:10018000846085B9DF91CF911F910F91089595B14A
:100190009B7F95B98F710E94900180E00E94900131
:1001A00095B1946095B9089595B19B7F95B90E94DA
:1001B000900185B1846085B908950E94870184B15A
:1001C000826084B984B1846084B985B18D7F85B93A
:1001D00085B1846085B98FE19EE40197F1F700C095
:1001E000000060E080E00E94960060E081E00E94F4
:1001F000960060E082E00E94960063E083E00E9447
:10020000960060E084E00E94960060E085E00E9435
:1002100096006EE086E00E94960085B1826085B906
:1002200085B18B7F85B90895CF93DF93EC0185B1BC
:100230008D7F85B985B1846085B985E00E9496007F
:1002400082E00E94C700682F626082E00E949600F0
:1002500045E0BE018BE00E94A70060E282E10E94BF
:10026000960080E00E94C700682F636080E00E94D3
:10027000960085B1826085B985B18B7F85B9DF91A4
:10028000CF910895CF93C82F87E00E94C700982F81
:10029000907486FF10C02C2F30E0220F331F90E0A7
:1002A00082239323892B31F060E487E00E9496003B
:1002B00091E001C090E0892FCF910895EF92FF92D5
:1002C0000F931F93CF937C0185B18B7F85B981E616
:1002D0000E949001C0E0C03250F487010C0F111D44
:1002E00080E00E949001F8018083CF5FF4CF85B158
:1002F000846085B9F5E3FA95F1F7000082EE0E947B
:10030000D400CF911F910F91FF90EF90089584B189
:100310008C6284B984B18F7E84B981E58CBD0895E7
:100320008EBD0DB407FEFDCF8EB50895DC01CB0167
:10033000880F991FAA1FBB1F880F991FAA1FBB1FD9
:100340009C01AD01220F331F441F551F220F331F85
:10035000441F551F60E074E284EF90E00E94F101B9
:10036000215031093093C5002093C40088E1809367
:10037000C10086E08093C20008959091C00095FF6F
:10038000FCCF8093C6000895CF93DF93EC01888162
:10039000882321F021960E94BD01F9CF8DE00E94B3
:1003A000BD018AE00E94BD01DF91CF910895CF93F6
:1003B000DF93EC018881882321F021960E94BD0102
:1003C000F9CF8DE00E94BD018AE00E94BD01DF915E
:1003D000CF9108958DE00E94BD018AE00E94BD0189
:1003E0000895A1E21A2EAA1BBB1BFD010DC0AA1F76
:1003F000BB1FEE1FFF1FA217B307E407F50720F08E
:10040000A21BB30BE40BF50B661F771F881F991F08
:100410001A9469F760957095809590959B01AC0151
:0A042000BD01CF010895F894FFCF4D
:10042A00EEDDCCBBAA426567696E6E696E67202EE7
:10043A002E2E20005061636B6574207265636569B6
:06044A007665643A200013
:00000001FF
