:100000000C9434000C9451000C9451000C94510049
:100010000C9451000C9451000C9451000C9451001C
:100020000C9451000C9451000C9451000C9453000A
:100030000C9451000C9451000C9451000C945100FC
:100040000C9451000C9451000C9451000C945100EC
:100050000C9451000C9451000C9451000C945100DC
:100060000C9451000C94510011241FBECFEFD8E026
:10007000DEBFCDBF11E0A0E0B1E0ECE6FCE002C0E5
:1000800005900D92A035B107D9F721E0A0E5B1E0C8
:1000900001C01D92AF35B207E1F70E94B3000C9486
:1000A00034060C9400001F920F920FB60F92112489
:1000B0002F933F934F935F936F937F938F939F9370
:1000C000AF93BF93EF93FF9320915E0130E02E5FDB
:1000D0003F4F81E090E002C0880F991F2A95E2F718
:1000E0002BB18095909582238BB980915E018F5FB3
:1000F00080935E0180915E01853020F010925E0158
:100100000E947902E0915E01F0E0EE0FFF1FEC5AD1
:10011000FE4F808191819093890080938800809127
:100120005E01843079F020915E0130E02E5F3F4F18
:100130003BB181E090E002C0880F991F2A95E2F759
:10014000832B8BB9FF91EF91BF91AF919F918F91CD
:100150007F916F915F914F913F912F910F900FBEC3
:100160000F901F901895CF93DF93CDB7DEB7C7558B
:10017000D1090FB6F894DEBF0FBECDBF60E875E2BF
:1001800080E090E00E94D1020E94C2020E942A02F6
:10019000789485E0E0E0F1E0DE01119601900D92A7
:1001A0008A95E1F70E9478016AE0CE0101960E94EB
:1001B000AF0185E091E00E94FF0280E090E0853091
:1001C00091053CF4FC01E05BFE4F20E820830196A2
:1001D000F6CF0E94790281E00E94E3018823D9F3DF
:1001E000CE0106960E94FF0184E191E00E94FF0289
:1001F000E4E5F1E066817781448155812281338194
:10020000808191817F936F935F934F933F932F935F
:100210009F938F9386E291E09F938F938E010A5D67
:100220001F4F1F930F930E944A03C8010E94FF02B1
:100230000E9412030FB6F894DEBF0FBECDBF80E060
:1002400090E0853091053CF6E6E0F0E0EC0FFD1F14
:10025000E80FF91F2081FC01E05BFE4F208301962F
:10026000F0CFCF93C62F95B19B7F95B98F718062E8
:100270000E94CB028C2F0E94CB0285B1846085B98D
:10028000CF9108950F931F93CF93DF938B01D42FBA
:1002900095B19B7F95B98F7180620E94CB02C0E0BF
:1002A000CD1740F4F801EC0FF11D80810E94CB02C4
:1002B000CF5FF6CF85B1846085B9DF91CF911F9173
:1002C0000F91089595B19B7F95B98F710E94CB02D4
:1002D00080E00E94CB0295B1946095B9089595B1E4
:1002E0009B7F95B90E94CB0285B1846085B9089542
:1002F0000E94C20284B1826084B984B1846084B9EE
:1003000085B18D7F85B985B1846085B98FE19EE423
:100310000197F1F700C0000060E080E00E94310129
:1003200060E081E00E94310160E082E00E943101E2
:1003300063E083E00E94310160E084E00E943101CB
:1003400060E085E00E9431016EE086E00E943101AC
:1003500085B1826085B985B18B7F85B90895CF93CA
:10036000DF93EC0185B18D7F85B985B1846085B956
:1003700085E00E94310182E00E946201682F626084
:1003800082E00E94310145E0BE018BE00E94420103
:1003900060E282E10E94310180E00E946201682FE8
:1003A000636080E00E9431018FE39FE10197F1F7E4
:1003B00000C0000085B1826085B985B18B7F85B9A9
:1003C000DF91CF910895CF93C82F87E00E946201FB
:1003D000982F907486FF10C02C2F30E0220F331F0F
:1003E00090E082239323892B31F060E487E00E9420
:1003F000310191E001C090E0892FCF910895EF92F3
:10040000FF920F931F93CF937C0185B18B7F85B9AA
:1004100081E60E94CB02C0E0C03250F487010C0F8D
:10042000111D80E00E94CB02F8018083CF5FF4CFE2
:1004300085B1846085B98FE99FE00197F1F700C02D
:10044000000082EE0E946F01CF911F910F91FF90EB
:10045000EF9008958AB18C638AB9E1E8F0E0808179
:1004600088608083808182608083EFE6F0E0808115
:10047000826080830895CF93DF93EB01DA01A61B9E
:10048000B70B282F30E00E943B032FEF30E040E015
:1004900050E00E941903DA01C9018C0F9D1FA11DB4
:1004A000B11D880F991FDF91CF910895CF93DF93EE
:1004B000EB018D3820F4CB01880F991F17C0282F2E
:1004C00030E02D583109DA01A61BB70B0E943B031F
:1004D00022E730E040E050E00E941903DA01C90150
:1004E0008C0F9D1FA11DB11D880F991FDF91CF910A
:1004F00008950F931F93CF93DF9300E511E040ED34
:1005000057E068EE73E0F80180810E945602C4E56E
:10051000D1E09983888344EC59E064EF71E0F801FD
:1005200081810E943B029B838A8344EC59E064EF03
:1005300071E0F80182810E943B029D838C8344EC30
:1005400059E064EF71E0F80183810E943B029F83D0
:100550008E83288139818A819B81280F391F8C8164
:100560009D81280F391F8E819F81280F391F88E7B1
:100570009BE9821B930B99878887DF91CF911F910D
:100580000F91089584B18C6284B984B18F7E84B94F
:1005900081E58CBD08958EBD0DB407FEFDCF8EB5EF
:1005A0000895DC01CB01880F991FAA1FBB1F880F7C
:1005B000991FAA1FBB1F9C01AD01220F331F441FAF
:1005C000551F220F331F441F551F60E074E284EF54
:1005D00090E00E941903215031093093C500209307
:1005E000C40088E18093C10086E08093C200089532
:1005F0009091C00095FFFCCF8093C6000895CF93E3
:10060000DF93EC018881882321F021960E94F80273
:10061000F9CF8DE00E94F8028AE00E94F802DF9193
:10062000CF9108958DE00E94F8028AE00E94F802BE
:100630000895A1E21A2EAA1BBB1BFD010DC0AA1F23
:10064000BB1FEE1FFF1FA217B307E407F50720F03B
:10065000A21BB30BE40BF50B661F771F881F991FB6
:100660001A9469F760957095809590959B01AC01FF
:10067000BD01CF010895A29FB001B39FC001A39F08
:10068000700D811D1124911DB29F700D811D1124CB
:10069000911D0895AEE0B0E0E0E5F3E00C940B06A8
:1006A0000D891E8986E08C831A8309838FEF9FE76B
:1006B0009E838D83AE01475E5F4F6F89788DCE013B
:1006C00001960E946C03EF81F885E00FF11F108204
:1006D0002E96E4E00C942706ABE0B0E0E2E7F3E00E
:1006E0000C94FD056C017B018A01FC0117821682C6
:1006F000838181FFCCC1CE0101963C01F60193813B
:10070000F70193FD859193FF81917F01882309F47F
:10071000BAC1853239F493FD859193FF81917F01B0
:10072000853229F4B60190E00E946305E7CF912C51
:10073000212C312CFFE1F315D8F08B3279F038F40D
:10074000803279F08332A1F4232D20611DC08D32D7
:1007500061F0803369F4232D216016C0832D8260FF
:10076000382EE32DE4603E2E2AC0F32DF8601DC024
:1007700037FC2DC020ED280F2A3040F08E32B9F41E
:1007800036FC81C1232D2064322E19C036FE06C0EE
:100790008AE0989E200D1124922E11C0EAE02E9E30
:1007A000200D1124222EF32DF0623F2E08C08C362E
:1007B00021F4832D8068382E02C0883641F4F70179
:1007C00093FD859193FF81917F018111B3CF982F84
:1007D0009F7D9554933028F40C5F1F4F9FE39983BE
:1007E0000DC0833631F0833771F0833509F059C07D
:1007F00021C0F801808189830E5F1F4F8824839474
:10080000912C530113C02801F2E04F0E511CF80146
:10081000A080B18036FE03C0692D70E002C06FEF8A
:100820007FEFC5010E9458054C018201F32DFF772F
:100830003F2E16C0280122E0420E511CF801A08074
:10084000B18036FE03C0692D70E002C06FEF7FEF0C
:10085000C5010E944D054C01F32DF0683F2E820129
:1008600033FC1BC0822D90E088169906B0F4B601C7
:1008700080E290E00E9463052A94F4CFF50137FCF2
:10088000859137FE81915F01B60190E00E9463057A
:1008900021102A9421E0821A91088114910471F7A1
:1008A000E8C0843611F0893641F5F80137FE07C0FB
:1008B00060817181828193810C5F1F4F08C06081CC
:1008C0007181072E000C880B990B0E5F1F4FF32DC3
:1008D000FF763F2E97FF09C09095809570956195A2
:1008E0007F4F8F4F9F4FF0683F2E2AE030E0A301EB
:1008F0000E949F05882E861845C0853731F4232D28
:100900002F7EB22E2AE030E025C0932D997FB92E9C
:100910008F36C1F018F4883579F0B5C0803719F0FA
:10092000883721F0B0C0E92FE061BE2EB4FE0DC0C3
:10093000FB2DF460BF2E09C034FE0AC0292F2660AB
:10094000B22E06C028E030E005C020E130E002C051
:1009500020E132E0F801B7FE07C060817181828139
:1009600093810C5F1F4F06C06081718180E090E031
:100970000E5F1F4FA3010E949F05882E8618FB2D36
:10098000FF773F2E36FE0DC0232D2E7FA22E891419
:1009900058F434FE0BC032FC09C0832D8E7EA82E85
:1009A00005C0B82CA32C03C0B82C01C0B92CA4FEE0
:1009B0000FC0FE01E80DF11D8081803321F49A2DD6
:1009C000997EA92E09C0A2FE06C0B394B39404C0B8
:1009D0008A2D867809F0B394A3FC11C0A0FE06C04E
:1009E000B21488F4280C922C9B180EC0B21460F438
:1009F000B60180E290E00E946305B394F7CFB21491
:100A000018F42B1802C0982C212CA4FE10C0B6019B
:100A100080E390E00E946305A2FE17C0A1FC03C022
:100A200088E790E002C088E590E0B6010CC08A2D0E
:100A3000867859F0A1FE02C08BE201C080E2A7FCDB
:100A40008DE2B60190E00E946305891438F4B60186
:100A500080E390E00E9463059A94F7CF8A94F301B3
:100A6000E80DF11D8081B60190E00E9463058110C0
:100A7000F5CF222009F442CEB60180E290E00E9438
:100A800063052A94F6CFF6018681978102C08FEF25
:100A90009FEF2B96E2E10C941906FC010590615042
:100AA00070400110D8F7809590958E0F9F1F089584
:100AB000FC016150704001900110D8F7809590952D
:100AC0008E0F9F1F08950F931F93CF93DF93FB010A
:100AD000238121FD03C08FEF9FEF2CC022FF16C0A2
:100AE00046815781248135814217530744F4A08100
:100AF000B1819D012F5F3F4F318320838C932681ED
:100B000037812F5F3F4F3783268314C08B01EC0161
:100B1000FB010084F185E02D0995892BE1F6D801D0
:100B200016968D919C911797019617969C938E938C
:100B30001697CE01DF91CF911F910F910895FA0181
:100B4000AA27283051F1203181F1E8946F936E7F0C
:100B50006E5F7F4F8F4F9F4FAF4FB1E03ED0B4E0FD
:100B60003CD0670F781F891F9A1FA11D680F791F3E
:100B70008A1F911DA11D6A0F711D811D911DA11D4F
:100B800020D009F468943F912AE0269F112430195F
:100B9000305D3193DEF6CF010895462F4770405DFA
:100BA0004193B3E00FD0C9F7F6CF462F4F70405DA9
:100BB0004A3318F0495D31FD4052419302D0A9F704
:100BC000EACFB4E0A6959795879577956795BA95FE
:100BD000C9F700976105710508959B01AC010A2EC4
:100BE00006945795479537952795BA95C9F7620F9B
:100BF000731F841F951FA01D08952F923F924F923F
:100C00005F926F927F928F929F92AF92BF92CF929C
:100C1000DF92EF92FF920F931F93CF93DF93CDB7A5
:100C2000DEB7CA1BDB0B0FB6F894DEBF0FBECDBF1D
:100C300009942A88398848885F846E847D848C84EE
:100C40009B84AA84B984C884DF80EE80FD800C81F7
:100C50001B81AA81B981CE0FD11D0FB6F894DEBFDA
:0C0C60000FBECDBFED010895F894FFCF4A
:100C6C00EEDDCCBBAA426567696E6E696E67202E9D
:100C7C002E2E20005061636B65742072656365696C
:100C8C007665643A20005468727573743A20256452
:100C9C002C205961773A2025642C205069746368A4
:100CAC003A2025642C20526F6C6C3A20256400008D
:00000001FF
