S01C000072656365697665725F746573745F73696E676C652E73726563B3
S11300000C9434000C9449000C9449000C9449005D
S11300100C9449000C9449000C9449000C94490038
S11300200C9449000C9449000C9449000C94490028
S11300300C9449000C9449000C9449000C94490018
S11300400C9449000C9449000C9449000C94490008
S11300500C9449000C9449000C9449000C944900F8
S11300600C9449000C94490011241FBECFEFD8E032
S1130070DEBFCDBF11E0A0E0B1E0E2E9F2E002C0F2
S113008005900D92A830B107D9F70E941D010C9478
S113009047010C94000084B18C6284B984B18F7ED2
S11300A084B981E58CBD08958EBD0DB407FEFDCFE6
S11300B08EB50895CF93C62F95B19B7F95B90E94B5
S11300C054008C2F0E94540085B1846085B9CF916F
S11300D0089595B19B7F95B90E9454008FEF0E94BB
S11300E0540095B1946095B90895CF93DF9384B18A
S11300F0826084B985B18D7F85B92FEF81EE94E05C
S1130100215080409040E1F700C000006BE080E0A7
S11301100E945A006FE381E00E945A006FE382E07C
S11301200E945A0063E083E00E945A006FEF84E06B
S11301300E945A0061E085E00E945A0066E086E071
S11301400E945A0060E787E00E945A0060E088E05D
S11301500E945A0060E089E00E945A00DAE0D0313F
S113016058F4C0E0C53030F467EE8D2F0E945A0079
S1130170CF5FF8CFDF5FF3CFC0E0C53030F467EE78
S113018080E10E945A00CF5FF8CFC1E1C73130F45B
S113019061E08C2F0E945A00CF5FF8CF60E08CE1C1
S11301A00E945A0060E08DE10E945A0060E081EEF6
S11301B00E945A0060E082EE0E945A00DF91CF91C3
S11301C00895CF9387E00E94690086FF12C085B12D
S11301D08B7F85B981E60E9454008FEF0E94540002
S11301E0C82F85B1846085B960E487E00E945A0015
S11301F001C0C0E08C2FCF9108951092C50087E60E
S11302008093C40088E18093C10086E08093C2009B
S113021008959091C00095FFFCCF8093C600089587
S1130220CF93DF93EC018881882321F021960E94EB
S11302300901F9CFDF91CF910895CF93DF9300D0D7
S1130240CDB7DEB70E944B000E9475000E94FD00EE
S113025085B1826085B980E091E00E9410010E941E
S1130260E100882351F089831A82CE0101960E940D
S1130270100185E091E00E9410012FEF89E698E1DA
S1130280215080409040E1F700C00000E8CFF8948E
S1050290FFCF9A
S10B029274657374000D0A0089
S9030000FC
